S0100000526F766572424D532E7372656324
S11300000C9467010C948F010C948F010C948F0154
S11300100C948F010C948F010C948F010C948F011C
S11300200C948F010C948F010C94E3090C94AF0889
S11300300C948F010C948F010C948F010C948F01FC
S11300400C948F010C948F010C948F010C948F01EC
S11300500C948F010C948F010C948F010C942F023B
S11300600C948F010C948F010C948F010C948F01CC
S11300700C948F010C948F010C948F010C948F01BC
S11300800C948F010C948F010C948F010C948F01AC
S11300900C948F010C948F010C948F010C948F019C
S11300A00C948F010C948F010C948F01320335034F
S11300B0240328032E0356035603560339033D0332
S11300C0410347034B035603510300000002000998
S11300D00F0000030401000C0000000000000000F9
S11300E000000000000000000408020110408040ED
S11300F0102040804080080204018040201002014A
S11301001080102040400404040404030405020287
S1130110020204030202020206060606060604049C
S11301200202020400000000250028002B002E001B
S1130130310000000000240027002A002D003000B8
S1130140080B00020202010009040000010202007F
S11301500005240010010524010101042402060500
S11301602406000107058103100040090401000270
S11301700A00000007050202400000070583024050
S1130180000000C18081C112010002020000404150
S11301902336800001010200011201000200000068
S11301A040412336800001010200014172647569F7
S11301B06E6F204C4C430041726475696E6F204C25
S11301C0656F6E6172646F0004030904000000002F
S11301D0000000002A2B280000000000000000009E
S11301E00000000000000000000000002C9EB4A0ED
S11301F0A1A2A434A6A7A5AE362D3738271E1F20EA
S1130200212223242526B333B62EB7B89F848586AE
S11302108788898A8B8C8D8E8F90919293949596F2
S11302209798999A9B9C9D2F3130A3AD3504050670
S11302300708090A0B0C0D0E0F10111213141516D2
S11302401718191A1B1C1DAFB1B0B5000904020020
S113025001030000000921010100012265000705D6
S1130260840340000105010902A1010901A10085DF
S1130270010509190129031500250195037501815B
S11302800295017505810305010930093109381505
S113029081257F750895038106C0C005010906A163
S11302A0018502050719E029E71500250175019567
S11302B008810295017508810395067508150025C6
S11302C0650507190029658100C08B048E0B112474
S11302D01FBECFEFDAE0DEBFCDBF11E0A0E0B1E09A
S11302E0EEE4FBE102C005900D92AA33B107D9F701
S11302F021E0AAE3B1E001C01D92A93CB207E1F7F5
S113030012E0CEECD2E004C02297FE010E94A10DBF
S1130310CA3CD107C9F70E94DA010C94A50D0C94CC
S11303200000089561E08AE00E94570361E08BE0D9
S11303300E94570360E08CE00E94570361E08DE067
S11303400E94570361E08AE00E9490038CB58F7D80
S11303508CBD8CB58C608CBD8CB58C7F81608CBD64
S11303608DB58E7F8DBD089540E052EC61E070E064
S113037083E691E00E9485040E94920108956AE058
S113038071E083E691E00E94010540913A015091A9
S11303903B0160913C0170913D0122E030E083E635
S11303A091E00E94A10664E670E080E090E00E9483
S11303B09C0208950E94C4020E94910183EB91E083
S11303C00E94390A0E94B4010E94BF0180E090E0BB
S11303D0892B29F00E9400000E94BF01FBCF0E94DC
S11303E0BF01FDCFE89409C097FB3EF4909580953A
S11303F0709561957F4F8F4F9F4F9923A9F0F92FE7
S113040096E9BB279395F695879577956795B79564
S1130410F111F8CFFAF4BB0F11F460FF1BC06F5F4A
S11304207F4F8F4F9F4F16C0882311F096E911C05C
S1130430772321F09EE8872F762F05C0662371F07D
S113044096E8862F70E060E02AF09A95660F771F91
S1130450881FDAF7880F9695879597F908951F9264
S11304600F920FB60F9211242F933F938F939F9364
S1130470AF93BF9380915B0190915C01A0915D016A
S1130480B0915E0130915A0123E0230F2D3720F4FF
S11304900196A11DB11D05C026E8230F0296A11DDA
S11304A0B11D20935A0180935B0190935C01A0934A
S11304B05D01B0935E0180915F0190916001A09114
S11304C06101B09162010196A11DB11D80935F018C
S11304D090936001A0936101B0936201BF91AF91C9
S11304E09F918F913F912F910F900FBE0F901F906E
S11304F018953FB7F89480915F0190916001A091A5
S11305006101B091620126B5A89B05C02F3F19F087
S11305100196A11DB11D3FBF6627782F892F9A2F01
S1130520620F711D811D911D42E0660F771F881FA8
S1130530991F4A95D1F70895CF92DF92EF92FF92D7
S1130540CF93DF936B017C010E947902EB01C1140C
S1130550D104E104F10489F00E94570A0E9479024F
S11305606C1B7D0B683E734090F381E0C81AD10880
S1130570E108F108C851DC4FEACFDF91CF91FF9039
S1130580EF90DF90CF900895789484B5826084BD15
S113059084B5816084BD85B5826085BD85B5816083
S11305A085BDEEE6F0E0808181608083E1E8F0E0E3
S11305B01082808182608083808181608083E0E812
S11305C0F0E0808181608083E1E9F0E080818260F5
S11305D08083808181608083E0E9F0E080818160B4
S11305E08083E1ECF0E0808184608083808182609C
S11305F08083808181608083E3ECF0E0808181608E
S11306008083E0ECF0E0808182608083E2ECF0E0C3
S1130610808181608083EAE7F0E080818460808368
S11306208081826080838081816080838081806812
S11306308083089590E0FC013197EF30F105B0F527
S1130640EA5AFF4F0C949F0D809180008F7703C06E
S1130650809180008F7D8093800008958091800038
S1130660877FF9CF84B58F7702C084B58F7D84BD31
S11306700895809190008F7707C0809190008F7DBE
S113068003C080919000877F8093900008958091AB
S1130690C0008F7703C08091C0008F7D8093C0001D
S11306A008958091C200877F8093C2000895CF93FC
S11306B0DF9390E0FC01E851FF4F2491FC01EA5FD5
S11306C0FE4F8491882349F190E0880F991FFC0123
S11306D0EE5CFE4FA591B4918C5D9E4FFC01C591DB
S11306E0D4919FB7611108C0F8948C91209582230E
S11306F08C93888182230AC0623051F4F8948C91DF
S1130700322F309583238C938881822B888304C075
S1130710F8948C91822B8C939FBFDF91CF91089595
S11307200F931F93CF93DF931F92CDB7DEB7282F7C
S113073030E0F901E653FF4F8491F901E851FF4F8E
S11307401491F901EA5FFE4F04910023C9F0882354
S113075021F069830E941A036981E02FF0E0EE0F13
S1130760FF1FEC5DFE4FA591B4919FB7F8948C9157
S1130770611103C01095812301C0812B8C939FBF0D
S11307800F90DF91CF911F910F910895CF93DF9335
S11307901F92CDB7DEB76983DC01ED91FC91028035
S11307A0F381E02D41E050E0BE016F5F7F4F09957A
S11307B00F90DF91CF910895CF93DF93EC018C8557
S11307C09D8597FF05C082E00E9484079D878C87E2
S11307D08C859D85DF91CF91089583E00C94D90990
S11307E0FC018485958597FD06C082E00E942C0754
S11307F090E00196089582E00E942C0790E008950D
S1130800FC018485958597FD05C02FEF3FEF358763
S11308102487089582E00C948407CF93DF93EC013E
S113082080910701882331F083E00E94B5071816F0
S1130830190634F081E090E09B838A8380E090E0A5
S1130840DF91CF910895FC0120812E5F208342E443
S113085050E060E471E080E80C945008FC01818170
S11308609081913A59F4813209F04BC047E050E04D
S113087060E071E080E00E94500845C0913209F0C8
S113088040C0803239F467E070E080E091E00E947B
S1130890810839C0823209F034C082818093070113
S11308A08091000190910101A0910201B091030196
S11308B0803B9440A105B10531F58091070180FD8D
S11308C012C087E797E790930108809300082BE014
S11308D088E190E00FB6F894A895809360000FBE6D
S11308E02093600010C088E10FB6F89480936000F4
S11308F0109260000FBEA895109201081092000893
S113090002C080E0089581E008952FEF3FEFFC01DD
S1130910358724870895109266011092650188EE48
S113092093E0A0E0B0E08093670190936801A09306
S11309306901B0936A0182E191E09093640180932C
S113094063018FEF9FEF9093700180936F0108957F
S1130950CF92DF92EF92FF920F931F93CF93DF9387
S11309606C017A01EB01E60EF71E00E010E0CE15F3
S1130970DF0561F06991D601ED91FC910190F08160
S1130980E02DC6010995080F191FF1CFC801DF91A9
S1130990CF911F910F91FF90EF90DF90CF9008952A
S11309A06115710581F0DB010D900020E9F7AD01BF
S11309B041505109461B570BDC01ED91FC9102801B
S11309C0F381E02D099480E090E00895DC01ED913D
S11309D0FC910190F081E02D09940F931F93CF9324
S11309E0DF93EC016DE00E94E6048C016AE0CE0125
S11309F00E94E604800F911FDF91CF911F910F9108
S1130A0008950F931F93CF93DF93EC010E94D004BA
S1130A108C01CE010E94ED04800F911FDF91CF91D4
S1130A201F910F9108958F929F92AF92BF92CF9290
S1130A30DF92EF92FF920F931F93CF93DF93CDB783
S1130A40DEB7A1970FB6F894DEBF0FBECDBF7C0111
S1130A50C42EE52FCB01D22E19A221E02D1510F0C2
S1130A602AE0D22E8E010F5D1F4F8D2C912CA12CCC
S1130A70B12C6C2D7E2FA50194010E947D0D8C2D2F
S1130A80D29E80191124015011098A3014F4805D1A
S1130A9001C0895CF80180832115310541055105A8
S1130AA021F0C22EE32FCA01E4CFB801C7010E948E
S1130AB0D004A1960FB6F894DEBF0FBECDBFDF9170
S1130AC0CF911F910F91FF90EF90DF90CF90BF9047
S1130AD0AF909F908F900895CF92DF92EF92FF9204
S1130AE00F931F93CF93DF93EC016A017B012115D0
S1130AF0310579F4E881F9810190F081E02D642FCA
S1130B00DF91CF911F910F91FF90EF90DF90CF90E5
S1130B1009942A303105E9F477FF1AC06DE20E9486
S1130B20E6048C0144275527BA014C195D096E0966
S1130B307F092AE0CE010E941305800F911FDF91E7
S1130B40CF911F910F91FF90EF90DF90CF90089578
S1130B502AE0B701A601CE01DF91CF911F910F9139
S1130B60FF90EF90DF90CF900C9413054F925F921B
S1130B706F927F928F929F92AF92BF92CF92DF92A9
S1130B80EF92FF920F931F93CF93DF93EC016A01CF
S1130B907B01B22E9A01AB01C701B6010E94790D07
S1130BA0882319F06EE171E027C026013701E8942B
S1130BB077F82FEF3FEF4FE75FE7C301B2010E94E1
S1130BC0790D81110DC02FEF3FEF4FE75FE7C301B0
S1130BD0B2010E94000C18161CF462E271E00CC011
S1130BE02FEF3FEF4FE75FE4C701B6010E94120DFC
S1130BF01816ACF466E271E0CE01DF91CF911F913B
S1130C000F91FF90EF90DF90CF90BF90AF909F90A7
S1130C108F907F906F905F904F900C94D0042FEF43
S1130C203FEF4FE75FECC701B6010E94000C87FD60
S1130C30E1CF20E030E0A901C701B6010E94000C19
S1130C4087FF0AC06DE2CE010E94E6048C01F7FA28
S1130C50F094F7F8F09402C000E010E0A12C60E0FA
S1130C6070E080E09FE3AB1441F020E030E040E22C
S1130C7051E40E94040CA394F6CF9B01AC01C7017C
S1130C80B6010E949C0B6B017C010E94710C2B012C
S1130C903C010E94F2019B01AC01C701B6010E9414
S1130CA09B0B6B017C012AE0B301A201CE010E94DF
S1130CB01305080F191FBB2039F06AE271E0CE0159
S1130CC00E94D004080F191F7B2C772041F120E0EB
S1130CD030E040E251E4C701B6010E94160D6B01F9
S1130CE07C010E946C0C4B01AA2497FCA094BA2CA2
S1130CF02AE030E0B501A401CE010E946C05080F82
S1130D00191FC501B4010E94F4019B01AC01C70184
S1130D10B6010E949B0B6B017C017A94D6CFC8016B
S1130D20DF91CF911F910F91FF90EF90DF90CF90C3
S1130D30BF90AF909F908F907F906F905F904F90F7
S1130D4008950F931F93CF93DF93EC010E94B60590
S1130D508C01CE010E94ED04800F911FDF91CF9191
S1130D601F910F9108954091B7015091B8012091BE
S1130D70B5013091B60142175307B4F49091E800DD
S1130D809570E1F39091E80092FD19C08093F10011
S1130D908091B7019091B80101968F739927892B9F
S1130DA019F48EEF8093E8008091B7019091B80117
S1130DB001969093B8018093B70181E0089580E093
S1130DC00895CF92DF92FF920F931F93CF93DF93F7
S1130DD01F92CDB7DEB7082F162F862F880F8E5F90
S1130DE099830E94B30683E00E94B306F02EC02EBE
S1130DF09981D92E8C2D8F19811778F4F60184915D
S1130E000E94B306082F80E00E94B3068023FFEF00
S1130E10CF1ADF0A8111EECF01C081E00F90DF917C
S1130E20CF911F910F91FF90DF90CF900895615063
S1130E3030F02091F100FC0120830196F8CF28982E
S1130E4084E68093BA0108952FB7FC012083F894B7
S1130E5067706093E9000895CF93DF931F92CDB735
S1130E60DEB7682FCE0101960E9424078091F2001C
S1130E7099819FBF0F90DF91CF910895FF920F93B7
S1130E801F93CF93DF9300D0CDB7DEB7F62E8A0140
S1130E909091B901992311F057FF03C08FEF9FEF91
S1130EA02BC0682FCE0101967A830E94240780917B
S1130EB0F20090E0A8017A81801791070CF4AC014C
S1130EC0EF2DF72FF40E84E6FE1639F02898809360
S1130ED0BA019091F1009193F7CF4115510521F09A
S1130EE08091F200882321F089818FBFCA0104C058
S1130EF08BE68093E800F8CF0F900F90DF91CF91AD
S1130F001F910F91FF900895CF93DF931F92CDB758
S1130F10DEB741E050E0BE016F5F7F4F0E943E07A5
S1130F20019719F4898190E002C08FEF9FEF0F9031
S1130F30DF91CF910895CF93DF931F92CDB7DEB7A2
S1130F40682FCE0101960E9424079091E800892F12
S1130F50807295FF04C09091F20080E4891B99810E
S1130F609FBF0F90DF91CF9108956F927F928F92E0
S1130F709F92AF92BF92CF92DF92EF92FF920F9324
S1130F801F93CF93DF931F92CDB7DEB7782E7B01EB
S1130F90C42EB52E8091B901882369F0042F152F32
S1130FA08AEFD82E872D8072982E9AE3A92E872D4A
S1130FB08074882E11C08FEF9FEF57C0872D0E9439
S1130FC09B07682E81110CC0DA94A9F361E070E0EC
S1130FD080E090E00E949C020115110579F73BC066
S1130FE0282F30E0021713070CF4602E672DCE0172
S1130FF001960E9424078091E80085FF29C0262DD0
S113100030E0021B130B992039F06A948FEF6816B5
S1131010B1F01092F100F9CFF701862D77FE07C0E9
S1131020815058F094919093F1003196F9CF81500A
S113103020F091919093F100FACFE20EF31E80918B
S1131040E80085FF0FC00115110511F481100AC0D5
S113105089818FBFC1CF5D9884E68093BB018C2DBD
S11310609B2D03C0A092E800F3CF0F90DF91CF91A6
S11310701F910F91FF90EF90DF90CF90BF90AF90B2
S11310809F908F907F906F9008951092E900109236
S1131090B8011092B7019093B6018093B5010895F9
S11310A0CF92DF92FF920F931F93CF93DF9300D0E1
S11310B0CDB7DEB7F82E8A016B0101151105B1F029
S11310C0F601F7FE02C0849101C0808149835A83EE
S11310D00E94B30601501109FFEFCF1ADF0A4981BC
S11310E05A818111EACF8FEF9FEF01C0CA010F909F
S11310F00F90DF91CF911F910F91FF90DF90CF90D0
S113110008951F93CF93DF931F92CDB7DEB7162FA9
S11311102091E80022FFFCCF612F79830E941707FA
S11311208BEF8093E800812F7981972F0F90DF91C7
S1131130CF911F910895CF93DF931F92CDB7DEB760
S11311401982CE0101960E942304CE0101960E94C9
S1131150760A898190E00F90DF91CF9108951F92D4
S11311600F920FB60F921124EF92FF920F931F93D9
S11311702F933F934F935F936F937F938F939F939B
S1131180AF93BF93EF93FF93CF93DF93CDB7DEB7C6
S11311906297DEBFCDBF1092E9008091E80083FF23
S11311A0EBC068E0CE010A960E94170782EF809395
S11311B0E8009A8597FF05C08091E80080FFFCCF86
S11311C003C08EEF8093E800892F807609F0B9C0C0
S11311D08B85811105C01092F1001092F100C5C0F9
S11311E0282F2D7F213009F4C0C0853049F4809127
S11311F0E80080FFFCCF8C8580688093E300B5C055
S1131200863009F076C02D85E888F988223071F59A
S113121080E090E02A8B0E9445080E949B0899E098
S11312208E010F5F1F4FF801392F11923A95E9F79C
S113123099832A892A8391E09E8390E898879AEF7C
S113124099872091B7013091B801275F3F4F3C83C4
S11312502B838D83C7010E94450849E050E0B80103
S113126080E00E9450080E949B087FC0C7012A8B1F
S11312700E9445082A89223241F482E290E00E94C9
S1131280810A892B09F071C074C0213069F48889FE
S11312909989089711F42093B4018091B4018111C4
S11312A018C069E971E01AC0233009F062C08C8566
S11312B0882391F0823021F460E187EB91E006C04D
S11312C0813009F056C06BE08BEA91E00E94E106A0
S11312D04AC067E871E002C068EC71E0611571050D
S11312E009F447C0FB01449150E080E80E94500893
S11312F03CC0873009F43DC0883021F481E08093FC
S1131300F10033C0893089F5937099F5E3E8F1E091
S113131081E021E096E38093E9002093EB0034918F
S11313203093EC009093ED008F5F3196853099F700
S11313308EE78093EA001092EA008C858093B901CD
S113134014C0888999890E9445088E85811105C039
S1131350CE010A960E942E0406C0823051F4CE01BA
S11313600A960E94A90A882321F08EEF8093E80050
S113137003C081E28093EB0062960FB6F894DEBF5F
S11313800FBECDBFDF91CF91FF91EF91BF91AF9190
S11313909F918F917F916F915F914F913F912F9189
S11313A01F910F91FF90EF900F900FBE0F901F9021
S11313B018958093E9008091F200882319F08AE35C
S11313C08093E80008951F920F920FB60F92112494
S11313D02F933F934F935F936F937F938F939F9339
S11313E0AF93BF93EF93FF938091E1001092E100DC
S11313F083FF0FC01092E90091E09093EB001092EC
S1131400EC0092E39093ED001092B90198E0909370
S1131410F00082FF1DC083E00E94D9098091BB01C6
S1131420882339F08091BB0181508093BB018823CC
S113143069F08091BA01882359F08091BA018150F2
S11314408093BA01811104C0289A02C05D9AF1CF39
S1131450FF91EF91BF91AF919F918F917F916F9188
S11314605F914F913F912F910F900FBE0F901F905E
S113147018951092B90181E08093D70080EA809397
S1131480D80082E189BD09B400FEFDCF61E070E0BF
S113149080E090E00E949C0280E98093D8008CE078
S11314A08093E2001092E000559A209A08950895DE
S11314B0FF920F931F93CF93DF93EC01F62EE881F5
S11314C0F9810480F581E02D09958C01E881F98189
S11314D00680F781E02D6F2DCE010995C80199276B
S11314E0DF91CF911F910F91FF900895FC0120810E
S11314F02F5F208349E150E06CE472E080E80C94B3
S1131500500845E650E065E672E080E80C94500827
S1131510EF92FF920F931F93CF93DF931F92CDB758
S1131520DEB789838B017A0141E050E0BE016F5F31
S11315307F4F84E00E94B507A701B80184E40E94AC
S1131540B5070F90DF91CF911F910F91FF90EF900E
S11315500895FC0191818081813A31F481E09130D8
S113156091F0933089F411C0813271F49B3021F4ED
S113157082818093090105C09A3031F4828180937D
S1131580080181E00895089580E0089548E050E05E
S113159082E00C94880ACF93DF93DC01683818F05A
S11315A0E8E7E60F25C0E62FF0E067FF11C0E0583A
S11315B0F10981E090E001C0880FEA95EAF71496FA
S11315C09C911497982B14969C931497E0E010C068
S11315D0E453FE4FE491EE2309F440C0E7FF08C052
S11315E014968C911497826014968C931497EF77C9
S11315F016968C9116978E1741F117968C91179722
S11316008E1719F118968C9118978E17F1F0199678
S11316108C9119978E17C9F01A968C911A978E1778
S1131620A1F01B968C911B978E1779F080E090E0C7
S1131630ED01C80FD91F2E81211102C0EE8305C010
S1131640019686309105A1F709C0BD016C5F7F4FFB
S1131650CD010E94C60A81E090E008C081E090E0DC
S113166013969C938E93129780E090E0DF91CF9134
S11316700895683818F0E8E7E60F25C0E62FF0E093
S113168067FF12C0E058F10921E030E001C0220FE9
S1131690EA95EAF72095DC0114963C9114973223DD
S11316A014963C93E0E00FC0E453FE4FE491EE2324
S11316B029F1E7FF08C0DC0114962C9114972D7FC3
S11316C014962C93EF7720E030E0EE2351F0DC0108
S11316D0A20FB31F16964C9116974E1302C016967E
S11316E01C922F5F3F4F2630310579F7BC016C5FA8
S11316F07F4F0E94C60A81E090E0089580E090E068
S11317000895FC01168217821086118612861386AC
S11317101482BC016C5F7F4F0C94C60A1092C801FE
S11317201092BF011092BE0180E391E09093BD013D
S11317308093BC0108955058BB27AA270ED038C106
S113174029D130F02ED120F031F49F3F11F41EF452
S11317501EC10EF4E095E7FB14C1E92F3AD180F3E2
S1131760BA17620773078407950718F071F49EF59A
S113177052C10EF4E0950B2EBA2FA02D0B01B90126
S113178090010C01CA01A0011124FF27591B99F0F3
S1131790593F50F4503E68F11A16F040A22F232FFF
S11317A0342F4427585FF3CF469537952795A7954F
S11317B0F0405395C9F77EF41F16BA0B620B730BF6
S11317C0840BBAF09150A1F0FF0FBB1F661F771F67
S11317D0881FC2F70EC0BA0F621F731F841F48F41C
S11317E0879577956795B795F7959E3F08F0B3CFA2
S11317F09395880F08F09927EE0F9795879508958C
S11318009CD008F481E008950CD0D2C0CAD040F036
S1131810C1D030F021F45F3F19F0B3C05111FCC0C6
S1131820B6C0D7D098F39923C9F35523B1F3951BC8
S1131830550BBB27AA2762177307840738F09F5FED
S11318405F4F220F331F441FAA1FA9F333D00E2E5C
S11318503AF0E0E830D091505040E695001CCAF7C9
S113186029D0FE2F27D0660F771F881FBB1F26178E
S113187037074807AB07B0E809F0BB0B802DBF0161
S1131880FF2793585F4F2AF09E3F510568F079C0B7
S1131890C3C05F3FECF3983EDCF38695779567957C
S11318A0B795F7959F5FC9F7880F911D9695879512
S11318B097F90895E1E0660F771F881FBB1F621731
S11318C073078407BA0720F0621B730B840BBA0BEF
S11318D0EE1F88F7E095089504D06894B1119CC078
S11318E008957FD088F09F5790F0B92F9927B7516A
S11318F0A0F0D1F0660F771F881F991F1AF0BA95D0
S1131900C9F712C0B13081F086D0B1E0089583C028
S1131910672F782F8827B85F39F0B93FCCF38695C5
S113192077956795B395D9F73EF490958095709522
S113193061957F4F8F4F9F4F0895990F0008550F62
S1131940AA0BE0E8FEEF16161706E807F907C0F041
S113195012161306E407F50798F0621B730B840B49
S1131960950B39F40A2661F0232B242B252B21F423
S113197008950A2609F4A140A6958FEF811D811DC3
S1131980089597F99F6780E870E060E008959FEFFD
S113199080EC089500240A94161617061806090602
S11319A0089500240A9412161306140605060895D1
S11319B0092E0394000C11F4882352F0BB0F40F459
S11319C0BF2B11F460FF04C06F5F7F4F8F4F9F4F99
S11319D0089557FD9058440F551F59F05F3F71F01B
S11319E04795880F97FB991F61F09F3F79F0879582
S11319F00895121613061406551FF2CF4695F1DF0B
S1131A0008C0161617061806991FF1CF869571059A
S1131A10610508940895E894BB2766277727CB01CE
S1131A2097F908958ADF08F48FEF08950BD0C0CF9B
S1131A30B1DF28F0B6DF18F0952309F0A2CFA7CFC5
S1131A401124EACFC6DFA0F3959FD1F3950F50E0A0
S1131A50551F629FF001729FBB27F00DB11D639F5C
S1131A60AA27F00DB11DAA1F649F6627B00DA11D02
S1131A70661F829F2227B00DA11D621F739FB00DA8
S1131A80A11D621F839FA00D611D221F749F332718
S1131A90A00D611D231F849F600D211D822F762FB1
S1131AA06A2F11249F5750408AF0E1F088234AF0AE
S1131AB0EE0FFF1FBB1F661F771F881F91505040FA
S1131AC0A9F79E3F510570F05CCFA6CF5F3FECF3C2
S1131AD0983EDCF3869577956795B795F795E795E6
S1131AE09F5FC1F7FE2B880F911D9695879597F9F7
S1131AF0089523DF880B990B0895A1E21A2EAA1BDF
S1131B00BB1BFD010DC0AA1FBB1FEE1FFF1FA217A9
S1131B10B307E407F50720F0A21BB30BE40BF50BA6
S1131B20661F771F881F991F1A9469F7609570952F
S1131B30809590959B01AC01BD01CF010895EE0FF6
S1111B40FF1F0590F491E02D0994F894FFCF57
S1131B4E00E100000000000001014F4B21000000E5
S1131B5E0000C6030D04F0030004DC03ED036E6104
S1131B6E6E00696E66006F7666002E00000000003F
S10D1B7E580AA804CB0A390B810BA6
S9030000FC
